{
    "contractName": "Lottery",
    "abi": [
        {
            "inputs": [
                {
                    "internalType": "uint64",
                    "name": "_subscriptionId",
                    "type": "uint64"
                }
            ],
            "stateMutability": "nonpayable",
            "type": "constructor"
        },
        {
            "inputs": [
                {
                    "internalType": "address",
                    "name": "have",
                    "type": "address"
                },
                {
                    "internalType": "address",
                    "name": "want",
                    "type": "address"
                }
            ],
            "name": "OnlyCoordinatorCanFulfill",
            "type": "error"
        },
        {
            "anonymous": false,
            "inputs": [
                {
                    "indexed": true,
                    "internalType": "uint256",
                    "name": "lotteryId",
                    "type": "uint256"
                },
                {
                    "indexed": true,
                    "internalType": "address",
                    "name": "lotteryOperator",
                    "type": "address"
                },
                {
                    "indexed": false,
                    "internalType": "uint256",
                    "name": "amount",
                    "type": "uint256"
                }
            ],
            "name": "LogTicketCommission",
            "type": "event"
        },
        {
            "anonymous": false,
            "inputs": [
                {
                    "indexed": true,
                    "internalType": "uint256",
                    "name": "lotteryId",
                    "type": "uint256"
                },
                {
                    "indexed": true,
                    "internalType": "address",
                    "name": "lotteryWinner",
                    "type": "address"
                },
                {
                    "indexed": false,
                    "internalType": "uint256",
                    "name": "amount",
                    "type": "uint256"
                }
            ],
            "name": "LotteryClaimed",
            "type": "event"
        },
        {
            "anonymous": false,
            "inputs": [
                {
                    "indexed": true,
                    "internalType": "address",
                    "name": "lotteryOperator",
                    "type": "address"
                },
                {
                    "indexed": false,
                    "internalType": "uint256",
                    "name": "ticketPrice",
                    "type": "uint256"
                },
                {
                    "indexed": false,
                    "internalType": "uint256",
                    "name": "maxTickets",
                    "type": "uint256"
                },
                {
                    "indexed": false,
                    "internalType": "uint256",
                    "name": "operatorCommissionPercentage",
                    "type": "uint256"
                },
                {
                    "indexed": false,
                    "internalType": "uint256",
                    "name": "expiration",
                    "type": "uint256"
                }
            ],
            "name": "LotteryCreated",
            "type": "event"
        },
        {
            "anonymous": false,
            "inputs": [
                {
                    "indexed": true,
                    "internalType": "uint256",
                    "name": "lotteryId",
                    "type": "uint256"
                },
                {
                    "indexed": false,
                    "internalType": "address",
                    "name": "lotteryWinner",
                    "type": "address"
                }
            ],
            "name": "LotteryWinnerDrawn",
            "type": "event"
        },
        {
            "anonymous": false,
            "inputs": [
                {
                    "indexed": true,
                    "internalType": "uint256",
                    "name": "lotteryId",
                    "type": "uint256"
                },
                {
                    "indexed": true,
                    "internalType": "uint256",
                    "name": "requestId",
                    "type": "uint256"
                },
                {
                    "indexed": false,
                    "internalType": "uint32",
                    "name": "numWords",
                    "type": "uint32"
                }
            ],
            "name": "LotteryWinnerRequestSent",
            "type": "event"
        },
        {
            "anonymous": false,
            "inputs": [
                {
                    "indexed": true,
                    "internalType": "uint256",
                    "name": "requestId",
                    "type": "uint256"
                },
                {
                    "indexed": false,
                    "internalType": "uint256[]",
                    "name": "randomWords",
                    "type": "uint256[]"
                }
            ],
            "name": "RequestFulfilled",
            "type": "event"
        },
        {
            "anonymous": false,
            "inputs": [
                {
                    "indexed": true,
                    "internalType": "address",
                    "name": "buyer",
                    "type": "address"
                },
                {
                    "indexed": true,
                    "internalType": "uint256",
                    "name": "lotteryId",
                    "type": "uint256"
                },
                {
                    "indexed": false,
                    "internalType": "uint256",
                    "name": "ticketsBought",
                    "type": "uint256"
                }
            ],
            "name": "TicketsBought",
            "type": "event"
        },
        {
            "inputs": [],
            "name": "COORDINATOR",
            "outputs": [
                {
                    "internalType": "contract VRFCoordinatorV2Interface",
                    "name": "",
                    "type": "address"
                }
            ],
            "stateMutability": "view",
            "type": "function"
        },
        {
            "inputs": [
                {
                    "internalType": "uint256",
                    "name": "_lotteryId",
                    "type": "uint256"
                },
                {
                    "internalType": "uint256",
                    "name": "_tickets",
                    "type": "uint256"
                }
            ],
            "name": "buyTickets",
            "outputs": [],
            "stateMutability": "payable",
            "type": "function"
        },
        {
            "inputs": [],
            "name": "callbackGasLimit",
            "outputs": [
                {
                    "internalType": "uint32",
                    "name": "",
                    "type": "uint32"
                }
            ],
            "stateMutability": "view",
            "type": "function"
        },
        {
            "inputs": [
                {
                    "internalType": "uint256",
                    "name": "_lotteryId",
                    "type": "uint256"
                }
            ],
            "name": "claimLottery",
            "outputs": [],
            "stateMutability": "nonpayable",
            "type": "function"
        },
        {
            "inputs": [
                {
                    "internalType": "address",
                    "name": "_lotteryOperator",
                    "type": "address"
                },
                {
                    "internalType": "uint256",
                    "name": "_ticketPrice",
                    "type": "uint256"
                },
                {
                    "internalType": "uint256",
                    "name": "_maxTickets",
                    "type": "uint256"
                },
                {
                    "internalType": "uint256",
                    "name": "_operatorCommissionPercentage",
                    "type": "uint256"
                },
                {
                    "internalType": "uint256",
                    "name": "_expiration",
                    "type": "uint256"
                }
            ],
            "name": "createLottery",
            "outputs": [],
            "stateMutability": "nonpayable",
            "type": "function"
        },
        {
            "inputs": [
                {
                    "internalType": "uint256",
                    "name": "_lotteryId",
                    "type": "uint256"
                }
            ],
            "name": "drawLotteryWinner",
            "outputs": [
                {
                    "internalType": "uint256",
                    "name": "requestId",
                    "type": "uint256"
                }
            ],
            "stateMutability": "nonpayable",
            "type": "function"
        },
        {
            "inputs": [
                {
                    "internalType": "uint256",
                    "name": "_lotteryId",
                    "type": "uint256"
                }
            ],
            "name": "getRemainingTickets",
            "outputs": [
                {
                    "internalType": "uint256",
                    "name": "",
                    "type": "uint256"
                }
            ],
            "stateMutability": "view",
            "type": "function"
        },
        {
            "inputs": [],
            "name": "keyHash",
            "outputs": [
                {
                    "internalType": "bytes32",
                    "name": "",
                    "type": "bytes32"
                }
            ],
            "stateMutability": "view",
            "type": "function"
        },
        {
            "inputs": [
                {
                    "internalType": "uint256",
                    "name": "",
                    "type": "uint256"
                }
            ],
            "name": "lottery",
            "outputs": [
                {
                    "internalType": "address",
                    "name": "lotteryOperator",
                    "type": "address"
                },
                {
                    "internalType": "uint256",
                    "name": "ticketPrice",
                    "type": "uint256"
                },
                {
                    "internalType": "uint256",
                    "name": "maxTickets",
                    "type": "uint256"
                },
                {
                    "internalType": "uint256",
                    "name": "operatorCommissionPercentage",
                    "type": "uint256"
                },
                {
                    "internalType": "uint256",
                    "name": "expiration",
                    "type": "uint256"
                },
                {
                    "internalType": "address",
                    "name": "lotteryWinner",
                    "type": "address"
                },
                {
                    "internalType": "uint256",
                    "name": "numTicketsSold",
                    "type": "uint256"
                }
            ],
            "stateMutability": "view",
            "type": "function"
        },
        {
            "inputs": [],
            "name": "lotteryCount",
            "outputs": [
                {
                    "internalType": "uint256",
                    "name": "",
                    "type": "uint256"
                }
            ],
            "stateMutability": "view",
            "type": "function"
        },
        {
            "inputs": [],
            "name": "numWords",
            "outputs": [
                {
                    "internalType": "uint32",
                    "name": "",
                    "type": "uint32"
                }
            ],
            "stateMutability": "view",
            "type": "function"
        },
        {
            "inputs": [
                {
                    "internalType": "uint256",
                    "name": "requestId",
                    "type": "uint256"
                },
                {
                    "internalType": "uint256[]",
                    "name": "randomWords",
                    "type": "uint256[]"
                }
            ],
            "name": "rawFulfillRandomWords",
            "outputs": [],
            "stateMutability": "nonpayable",
            "type": "function"
        },
        {
            "inputs": [],
            "name": "requestConfirmations",
            "outputs": [
                {
                    "internalType": "uint16",
                    "name": "",
                    "type": "uint16"
                }
            ],
            "stateMutability": "view",
            "type": "function"
        },
        {
            "inputs": [
                {
                    "internalType": "uint256",
                    "name": "",
                    "type": "uint256"
                }
            ],
            "name": "requests",
            "outputs": [
                {
                    "internalType": "uint256",
                    "name": "lotteryId",
                    "type": "uint256"
                },
                {
                    "internalType": "bool",
                    "name": "fulfilled",
                    "type": "bool"
                },
                {
                    "internalType": "bool",
                    "name": "exists",
                    "type": "bool"
                }
            ],
            "stateMutability": "view",
            "type": "function"
        },
        {
            "inputs": [],
            "name": "subscriptionId",
            "outputs": [
                {
                    "internalType": "uint64",
                    "name": "",
                    "type": "uint64"
                }
            ],
            "stateMutability": "view",
            "type": "function"
        },
        {
            "inputs": [],
            "name": "vrfCoordinator",
            "outputs": [
                {
                    "internalType": "address",
                    "name": "",
                    "type": "address"
                }
            ],
            "stateMutability": "view",
            "type": "function"
        }
    ],
    "bytecode": "60a0604052600180546001600160a01b031916738103b0a8a00be2ddc778e6e7eaa21791cd3646251790557f474e34a077df58807dbe9c96d3c009b23b3c6d0cce433e59bbf5b34f823bc56c6002556003805466010003000186a06001600160501b0319909116179055600060045534801561007a57600080fd5b50604051611783380380611783833981016040819052610099916100d9565b6001546001600160a01b03166080819052600080546001600160401b03909316600160a01b026001600160e01b0319909316909117919091179055610109565b6000602082840312156100eb57600080fd5b81516001600160401b038116811461010257600080fd5b9392505050565b60805161165861012b600039600081816106e7015261072901526116586000f3fe6080604052600436106100f35760003560e01c806381d12c581161008a578063aced7cce11610059578063aced7cce1461038c578063b0fb162f146103ac578063c6f6d9d9146103e2578063df85b741146103f857600080fd5b806381d12c58146102525780638627df46146102af578063a3e56fa8146102c2578063a57d1560146102e257600080fd5b80633b2bcbf1116100c65780633b2bcbf1146101b257806361728f39146101ea5780637ccfd7fc1461020e57806380af305a1461023257600080fd5b806303c868bb146100f857806309c1ba2e1461011a5780631fe543e31461016057806324f7469714610180575b600080fd5b34801561010457600080fd5b50610118610113366004611394565b610418565b005b34801561012657600080fd5b5060005461014290600160a01b900467ffffffffffffffff1681565b60405167ffffffffffffffff90911681526020015b60405180910390f35b34801561016c57600080fd5b5061011861017b3660046113c3565b6106dc565b34801561018c57600080fd5b5060035461019d9063ffffffff1681565b60405163ffffffff9091168152602001610157565b3480156101be57600080fd5b506000546101d2906001600160a01b031681565b6040516001600160a01b039091168152602001610157565b3480156101f657600080fd5b5061020060025481565b604051908152602001610157565b34801561021a57600080fd5b5060035461019d90600160301b900463ffffffff1681565b34801561023e57600080fd5b5061020061024d366004611394565b610764565b34801561025e57600080fd5b5061029261026d366004611394565b6006602052600090815260409020805460019091015460ff8082169161010090041683565b604080519384529115156020840152151590820152606001610157565b6101186102bd36600461148d565b61078d565b3480156102ce57600080fd5b506001546101d2906001600160a01b031681565b3480156102ee57600080fd5b506103486102fd366004611394565b600560208190526000918252604090912080546001820154600283015460038401546004850154958501546008909501546001600160a01b0394851696939592949193929091169087565b604080516001600160a01b03988916815260208101979097528601949094526060850192909252608084015290921660a082015260c081019190915260e001610157565b34801561039857600080fd5b506102006103a7366004611394565b610a96565b3480156103b857600080fd5b506003546103cf90640100000000900461ffff1681565b60405161ffff9091168152602001610157565b3480156103ee57600080fd5b5061020060045481565b34801561040457600080fd5b506101186104133660046114af565b610d7c565b6000818152600560208190526040909120015481906001600160a01b03166104935760405162461bcd60e51b815260206004820152602360248201527f4572726f723a204c6f74746572792057696e6e6572206e6f742079657420647260448201526230bbb760e91b60648201526084015b60405180910390fd5b600081815260056020819052604090912001546001600160a01b03163314806104d257506000818152600560205260409020546001600160a01b031633145b61052e5760405162461bcd60e51b815260206004820152602760248201527f4572726f723a2043616c6c6572206973206e6f7420746865206c6f7474657279604482015266103bb4b73732b960c91b606482015260840161048a565b6000828152600560205260408120600181015460068201549192916105539190611515565b90506000826003015460646105689190611548565b6105729083611548565b83546040519192506000916001600160a01b039091169083908381818185875af1925050503d80600081146105c3576040519150601f19603f3d011682016040523d82523d6000602084013e6105c8565b606091505b50509050806105d657600080fd5b83546040518381526001600160a01b039091169087907f78a655086ffbf3446a9cc1c84966351cb3930c06f18263b1566cc48281569bf59060200160405180910390a36000610625838561155c565b60058601546040519192506000916001600160a01b039091169083908381818185875af1925050503d8060008114610679576040519150601f19603f3d011682016040523d82523d6000602084013e61067e565b606091505b505090508061068c57600080fd5b60058601546040518381526001600160a01b039091169089907f187b8ee2ae17c799c64d020cb9b7bc70b33fb6d4a3fe74625ae98313375c96619060200160405180910390a35050505050505050565b336001600160a01b037f000000000000000000000000000000000000000000000000000000000000000016146107565760405163073e64fd60e21b81523360048201526001600160a01b037f000000000000000000000000000000000000000000000000000000000000000016602482015260440161048a565b6107608282611168565b5050565b600081815260056020526040812060068101546002820154610786919061155c565b9392505050565b34816107f35760405162461bcd60e51b815260206004820152602f60248201527f4572726f723a204e756d626572206f66207469636b657473206d75737420626560448201526e02067726561746572207468616e203608c1b606482015260840161048a565b6107fc83610764565b8211156108825760405162461bcd60e51b815260206004820152604860248201527f4572726f723a204e756d626572206f66207469636b657473206d75737420626560448201527f206c657373207468616e206f7220657175616c20746f2072656d61696e696e67606482015267207469636b65747360c01b608482015260a40161048a565b60008381526005602052604090206001015461089e9083611515565b8110156109245760405162461bcd60e51b815260206004820152604860248201527f4572726f723a2045746865722076616c7565206d75737420626520657175616c60448201527f20746f206e756d626572206f66207469636b6574732074696d6573207469636b606482015267657420707269636560c01b608482015260a40161048a565b60008381526005602052604090206004015442106109845760405162461bcd60e51b815260206004820152601a60248201527f4572726f723a204c6f7474657279206861732065787069726564000000000000604482015260640161048a565b6000838152600560205260409020600281015460068201546109a790859061156f565b1115610a145760405162461bcd60e51b815260206004820152603660248201527f4572726f723a20416464696e67207469636b65747320776f756c6420657863656044820152751959081d1a19481b585e1a5b5d5b48185b1b1bddd95960521b606482015260840161048a565b60005b83811015610a5857600682018054600181018255600091825260209091200180546001600160a01b0319163317905580610a5081611582565b915050610a17565b50604051838152849033907fb0ebd247b49b0f0079dfe3093ede3e56ddb43164363f38bf1576023c076ab4f29060200160405180910390a350505050565b60008181526005602052604081205482906001600160a01b03163314610b105760405162461bcd60e51b815260206004820152602960248201527f4572726f723a2043616c6c6572206973206e6f7420746865206c6f74746572796044820152681037b832b930ba37b960b91b606482015260840161048a565b6000838152600560205260409020600401544211610b7b5760405162461bcd60e51b815260206004820152602260248201527f4572726f723a204c6f747465727920686173206e6f7420796574206578706972604482015261195960f21b606482015260840161048a565b600083815260056020819052604090912001546001600160a01b031615610bf05760405162461bcd60e51b815260206004820152602360248201527f4572726f723a204c6f74746572792077696e6e657220616c726561647920647260448201526230bbb760e91b606482015260840161048a565b6000546002546003546040516305d3b1d360e41b81526004810192909252600160a01b830467ffffffffffffffff166024830152640100000000810461ffff16604483015263ffffffff8082166064840152600160301b9091041660848201526001600160a01b0390911690635d3b1d309060a4016020604051808303816000875af1158015610c84573d6000803e3d6000fd5b505050506040513d601f19601f82011682018060405250810190610ca8919061159b565b60408051608081018252858152600060208083018281526001848601818152865185815280850188526060870190815288865260068552969094208551815591519082018054945115156101000261ff00199215159290921661ffff1990951694909417179092559251805194965091939092610d2c9260028501929101906112df565b5050600354604051600160301b90910463ffffffff16815283915084907f2bf8ed61172c3c3acdd1d362866fc15c2d4bc4bc06734dfc6f4f37ad4bff388e9060200160405180910390a350919050565b6001600160a01b038516610de05760405162461bcd60e51b815260206004820152602560248201527f4572726f723a204c6f7474657279206f70657261746f722063616e6e6f742062604482015264065203078360dc1b606482015260840161048a565b610deb6005836115b4565b15610e715760405162461bcd60e51b815260206004820152604a60248201527f4572726f723a20436f6d6d697373696f6e2070657263656e746167652073686f60448201527f756c642062652067726561746572207468616e207a65726f20616e64206d756c6064820152697469706c65206f66203560b01b608482015260a40161048a565b428111610ee65760405162461bcd60e51b815260206004820152603e60248201527f4572726f723a2045787069726174696f6e206d7573742062652067726561746560448201527f72207468616e2063757272656e7420626c6f636b2074696d657374616d700000606482015260840161048a565b60008311610f485760405162461bcd60e51b815260206004820152602960248201527f4572726f723a204d6178207469636b657473206d75737420626520677265617460448201526806572207468616e20360bc1b606482015260840161048a565b60008411610fab5760405162461bcd60e51b815260206004820152602a60248201527f4572726f723a205469636b6574207072696365206d75737420626520677265616044820152690746572207468616e20360b41b606482015260840161048a565b600480546060916000610fbd83611582565b9190505550604051806101200160405280876001600160a01b0316815260200186815260200185815260200184815260200183815260200160006001600160a01b03168152602001828152602001600067ffffffffffffffff811115611025576110256113ad565b60405190808252806020026020018201604052801561104e578160200160208202803683370190505b508152600060209182018190526004805482526005808452604092839020855181546001600160a01b039182166001600160a01b03199182161783558787015160018401559487015160028301556060870151600383015560808701519382019390935560a08601519181018054929093169190931617905560c0830151805191926110e29260068501929091019061132a565b5060e082015180516110fe91600784019160209091019061132a565b5061010091909101516008909101556040805186815260208101869052908101849052606081018390526001600160a01b038716907f6ea53a39df541fb1cbe9c72ac93df14dd0c1cbf4ecf31240bddea27ccff0b03c9060800160405180910390a2505050505050565b600082815260066020526040902060010154610100900460ff166111ce5760405162461bcd60e51b815260206004820152601860248201527f4572726f723a2052657175657374206e6f7420666f756e640000000000000000604482015260640161048a565b600082815260066020908152604090912080546001808301805460ff19169091179055835190926112069260020191908501906112df565b5060008181526005602052604081206008015483518490839061122b5761122b6115c8565b602002602001015161123d91906115b4565b600083815260056020526040902060070180549192509082908110611264576112646115c8565b600091825260208083209091015484835260059182905260409283902090910180546001600160a01b0319166001600160a01b039092169190911790555184907ffe2e2d779dba245964d4e3ef9b994be63856fd568bf7d3ca9e224755cb1bd54d906112d19086906115de565b60405180910390a250505050565b82805482825590600052602060002090810192821561131a579160200282015b8281111561131a5782518255916020019190600101906112ff565b5061132692915061137f565b5090565b82805482825590600052602060002090810192821561131a579160200282015b8281111561131a57825182546001600160a01b0319166001600160a01b0390911617825560209092019160019091019061134a565b5b808211156113265760008155600101611380565b6000602082840312156113a657600080fd5b5035919050565b634e487b7160e01b600052604160045260246000fd5b600080604083850312156113d657600080fd5b8235915060208084013567ffffffffffffffff808211156113f657600080fd5b818601915086601f83011261140a57600080fd5b81358181111561141c5761141c6113ad565b8060051b604051601f19603f83011681018181108582111715611441576114416113ad565b60405291825284820192508381018501918983111561145f57600080fd5b938501935b8285101561147d57843584529385019392850192611464565b8096505050505050509250929050565b600080604083850312156114a057600080fd5b50508035926020909101359150565b600080600080600060a086880312156114c757600080fd5b85356001600160a01b03811681146114de57600080fd5b97602087013597506040870135966060810135965060800135945092505050565b634e487b7160e01b600052601160045260246000fd5b808202811582820484141761152c5761152c6114ff565b92915050565b634e487b7160e01b600052601260045260246000fd5b60008261155757611557611532565b500490565b8181038181111561152c5761152c6114ff565b8082018082111561152c5761152c6114ff565b600060018201611594576115946114ff565b5060010190565b6000602082840312156115ad57600080fd5b5051919050565b6000826115c3576115c3611532565b500690565b634e487b7160e01b600052603260045260246000fd5b6020808252825182820181905260009190848201906040850190845b81811015611616578351835292840192918401916001016115fa565b5090969550505050505056fea2646970667358221220304a7d3c4287487c9af9a27f1a17cccf2922dfe60bcaafaba1d5364feaa9f4be64736f6c63430008130033",
    "sourcePath": "/home/webclues/Lottery_Hardhat/contracts/Lottery.sol",
    "compiler": {
        "name": "solc",
        "version": "0.8.19+commit.7dd6d404"
    },
    "functionHashes": {
        "COORDINATOR()": "3b2bcbf1",
        "buyTickets(uint256,uint256)": "8627df46",
        "callbackGasLimit()": "24f74697",
        "claimLottery(uint256)": "03c868bb",
        "createLottery(address,uint256,uint256,uint256,uint256)": "df85b741",
        "drawLotteryWinner(uint256)": "aced7cce",
        "getRemainingTickets(uint256)": "80af305a",
        "keyHash()": "61728f39",
        "lottery(uint256)": "a57d1560",
        "lotteryCount()": "c6f6d9d9",
        "numWords()": "7ccfd7fc",
        "rawFulfillRandomWords(uint256,uint256[])": "1fe543e3",
        "requestConfirmations()": "b0fb162f",
        "requests(uint256)": "81d12c58",
        "subscriptionId()": "09c1ba2e",
        "vrfCoordinator()": "a3e56fa8"
    },
    "gasEstimates": {
        "creation": {
            "codeDepositCost": "1144000",
            "executionCost": "infinite",
            "totalCost": "infinite"
        },
        "external": {
            "COORDINATOR()": "2360",
            "buyTickets(uint256,uint256)": "infinite",
            "callbackGasLimit()": "2403",
            "claimLottery(uint256)": "infinite",
            "createLottery(address,uint256,uint256,uint256,uint256)": "infinite",
            "drawLotteryWinner(uint256)": "infinite",
            "getRemainingTickets(uint256)": "4741",
            "keyHash()": "2340",
            "lottery(uint256)": "15412",
            "lotteryCount()": "2361",
            "numWords()": "2397",
            "rawFulfillRandomWords(uint256,uint256[])": "infinite",
            "requestConfirmations()": "2368",
            "requests(uint256)": "4653",
            "subscriptionId()": "2365",
            "vrfCoordinator()": "2404"
        },
        "internal": {
            "fulfillRandomWords(uint256,uint256[] memory)": "infinite"
        }
    }
}